S0150000535645544F464F522056332E302E7372656390
S11300000C9472040C94B0040C9498040C9498040A
S11300100C9498040C9498040C9498040C949804EC
S11300200C9498040C9498040C9498040C940B0667
S11300300C9498040C9498040C9498040C949804CC
S11300400C9498040C9498040C940B0F0C9498043E
S11300500C9498040C9498040C9498040C949804AC
S11300600C9498040C949804010100000000000111
S1130070000000392430191202380010454550524E
S11300804F4D3A20494E56414C49442F454D50540A
S113009059202D2044454641554C54205345545431
S11300A0494E4753204C4F414445440D0A004545B1
S11300B050524F4D3A2053455454494E4753204CC7
S11300C04F414445440D0A000D0A0D0A5254433A67
S11300D0204F4B0D0A454550524F4D3A205345543D
S11300E054494E4753204143544956450D0A3D3D1A
S11300F03D3D3D3D3D3D3D3D3D3D3D3D3D3D3D3D2C
S11301003D3D3D3D3D3D3D3D3D3D3D3D3D3D3D3D1B
S11301103D3D3D3D3D3D3D3D3D3D0D0A000D0A4EFD
S11301206967687420656E643A200020730D0A0DB7
S11301300A4155544F5F4E494748543A0D0A4E6997
S11301406768742073746172743A200020730D0A16
S113015059656C6C6F77204F46463A20000D0A0DA6
S11301600A4E49474854204D4F44453A0D0A5965B3
S11301706C6C6F77204F4E3A20000D0A43757272F3
S1130180656E742073746167653A200020730D0AEC
S1130190537461676520343A204341522059454CD9
S11301A04C4F57202F2050454420524544202D20A9
S11301B00020730D0A537461676520333A2043416C
S11301C05220524544202F20504544204752454553
S11301D04E202D200020730D0A5374616765203270
S11301E03A204341522059454C4C4F57202F205020
S11301F0454420524544202D20000D0A0D0A415546
S1130200544F204D4F44453A0D0A5374616765209D
S1130210313A2043415220475245454E202F205029
S1130220454420524544202D20000D0A3D3D3D3DCE
S11302303D3D3D3D3D3D3D3D3D3D3D3D3D3D3D3DEA
S11302403D3D3D3D3D3D3D3D3D3D3D3D3D3D3D3DDA
S11302503D3D3D3D3D3D3D3D0D0A535441545553B7
S11302600D0A3D3D3D3D3D3D3D3D3D3D3D3D3D3D1D
S11302703D3D3D3D3D3D3D3D3D3D3D3D3D3D3D3DAA
S11302803D3D3D3D3D3D3D3D3D3D3D3D3D3D0D0AFD
S1130290000D0A3D3D3D3D3D3D3D3D3D3D3D3D3D2A
S11302A03D3D3D3D3D3D3D3D3D3D3D3D3D3D3D3D7A
S11302B03D3D3D3D3D3D3D3D3D3D3D3D3D3D3D0D9A
S11302C00A41544D45474133323850205356455422
S11302D04F464F522056322E310D0A3D3D3D3D3D95
S11302E03D3D3D3D3D3D3D3D3D3D3D3D3D3D3D3D3A
S11302F03D3D3D3D3D3D3D3D3D3D3D3D3D3D3D3D2A
S11303003D3D3D3D3D3D3D0D0A52455345540D0A8D
S113031048454C500D0A524541445F53544154558D
S1130320530D0A5345545F54494D452048483A4DAE
S11303304D3A53530D0A5345545F444154452044A8
S1130340443A4D4D3A59590D0A4D4F44455F4F4675
S1130350460D0A4D4F44455F4155544F0D0A4D4FCC
S113036044455F4E494748540D0A4D4F44455F414B
S113037055544F5F4E494748540D0A5345545F4DF9
S11303804F44455F4155544F20315F5858582032EF
S11303905F58585820335F58585820345F5858587D
S11303A00D0A5345545F4D4F44455F4E49474854E9
S11303B0204F4E5F585858204F46465F5858580DA6
S11303C00A5345545F4D4F44455F4155544F5F4E6A
S11303D0494748545F54494D45204F4E2048483AB8
S11303E04D4D3A5353204F46462048483A4D4D3AD6
S11303F053530D0A3D3D3D3D3D3D3D3D3D3D3D3D60
S11304003D3D3D3D3D3D3D3D3D3D3D3D3D3D3D3D18
S11304103D3D3D3D3D3D3D3D3D3D3D3D3D3D3D3D08
S11304200D0A000D0A4F4B3A204D435520524553B7
S1130430455454494E472E2E2E0D0A000D0A45529E
S1130440524F523A20414C4C204155544F20535462
S11304504147455320415245205A45524F0D0A0009
S11304600D0A4552524F523A20525443204E4F5493
S113047020415641494C41424C450D0A000D0A4564
S113048052524F523A20494E56414C4944204E490B
S113049047485420454E440D0A000D0A4552524F18
S11304A0523A20494E56414C4944204E49474854FB
S11304B02053544152540D0A000D0A4552524F52D2
S11304C03A204558504543544544204F46460D0A6A
S11304D0000D0A4552524F523A2045585045435454
S11304E04544204F4E0D0A000D0A4552524F523AD0
S11304F020494E56414C4944204F46462054494DCC
S1130500450D0A000D0A4552524F523A20494E56A3
S1130510414C4944204F4E2054494D450D0A000D8D
S11305200A4552524F523A20455850454354454487
S1130530204F46465F5858580D0A000D0A4552523E
S11305404F523A204558504543544544204F4E5F3E
S11305505858580D0A000D0A4552524F523A205429
S11305604F4F204D414E5920504152414D45544525
S113057052530D0A000D0A4552524F523A20455823
S11305805045435445442034205354414745530D6A
S11305900A000D0A4552524F523A20494E56414CD8
S11305A04944204155544F20504152414D455445F2
S11305B0520D0A000D0A4552524F523A20494E56E6
S11305C0414C494420444154450D0A000D0A45520A
S11305D0524F523A20494E56414C49442054494DB9
S11305E0450D0A000D0A4552524F523A20554E4BC2
S11305F04E4F574E20434F4D4D414E440D0A000D72
S11306000A4F4B3A204D4F44455F4155544F5F4E7E
S113061049474854202D2053415645440D0A000DA6
S11306200A4F4B3A204D4F44455F4E4947485420AA
S11306302D2053415645440D0A000D0A4F4B3A20D4
S11306404D4F44455F4155544F202D20534156454D
S1130650440D0A000D0A4F4B3A204D4F44455F4F5D
S11306604646202D2053415645440D0A000D0A4F9D
S11306704B3A204155544F204E4947485420544941
S11306804D45205550444154454420414E44205347
S1130690415645440D0A000D0A4F4B3A204E494736
S11306A048542054494D45532055504441544544E1
S11306B020414E442053415645440D0A000D0A4F33
S11306C04B3A204155544F2054494D4553205550E1
S11306D0444154454420414E442053415645440D21
S11306E00A000D0A4F4B3A204441544520534554C7
S11306F00D0A000D0A4F4B3A2054494D45205345ED
S1130700540D0A000D0A494E464F3A2050454445BF
S113071053545249414E2052455155455354204952
S1130720474E4F524544202D2053544147452054B1
S11307304F4F20434C4F534520544F20454E440DBA
S11307400A000D0A4F4B3A20504544455354524930
S1130750414E20524551554553540D0A00525443BD
S11307603A204F4B0D0A000D0A5452414646494364
S1130770204C49474854532044495341424C454432
S11307800D0A000D0A4552524F523A20525443204A
S11307904E4F5420524553504F4E44494E470D0A34
S11307A0000D0A3D3D3D3D3D3D3D3D3D3D3D3D3D15
S11307B03D3D3D3D3D3D3D3D3D3D3D3D3D3D3D3D65
S11307C03D3D3D3D3D3D3D3D3D3D3D3D3D3D3D0D85
S11307D00A2041544D454741333238502053564541
S11307E0544F464F522076322E310D0A3D3D3D3D49
S11307F03D3D3D3D3D3D3D3D3D3D3D3D3D3D3D3D25
S11308003D3D3D3D3D3D3D3D3D3D3D3D3D3D3D3D14
S11308103D3D3D3D3D3D3D3D0D0A4350553A203162
S113082036204D487A2065787465726E616C206359
S113083072797374616C0D0A554152543A203936F9
S1130840303020626175640D0A5254433A20445397
S1130850333233310D0A454550524F4D3A20494EFB
S11308605445524E414C2041544D45474133323852
S1130870500D0A3D3D3D3D3D3D3D3D3D3D3D3D3DF4
S11308803D3D3D3D3D3D3D3D3D3D3D3D3D3D3D3D94
S11308903D3D3D3D3D3D3D3D3D3D3D3D3D3D3D0DB4
S11308A00A547970652048454C5020666F72206365
S11308B06F6D6D616E64732E0D0A0052455345547D
S11308C02043415553453A20534F465457415245CE
S11308D02052455345540D0A00504F5745522D4F51
S11308E04E0D0A0011241FBECFEFD8E0DEBFCDBFEE
S11308F084B780932E0214BEE0E6F0E088E18083A2
S1130900108211E0A0E0B1E0E0E4F7E202C005905B
S11309100D92A83CB107D9F722E0A8ECB1E001C0E0
S11309201D92AD32B207E1F70E9488070C949E1322
S11309300C94000052985A9AE9E6F0E080818260B3
S1130940808380818E7F8083E89A08958091C80196
S1130950882329F08091C80181508093C8010895AB
S11309601F920F920FB60F9211248F938091C8019A
S1130970811106C08EE18093C80181E08093C90192
S11309808F910F900FBE0F901F9018958F929F928A
S1130990AF92BF92CF92DF92EF92FF920F931F9389
S11309A09FB7F8948091C9011092C9019FBF882311
S11309B009F45CC08091D2018D7F813009F056C06A
S11309C08091DE01811152C080910601909107014E
S11309D0892B09F44BC08091DD01811147C087EE5A
S11309E091E00E9463086B017C012091D501309154
S11309F0D6014091D7015091D8010E948808E09116
S1130A000601F09107018F0120E030E060177107C3
S1130A108207930758F548015901861A970AA80ACC
S1130A20B90AB501A401CF0196958795A0E0B0E07D
S1130A3088169906AA06BB06A8F446305105610536
S1130A40710580F081E08093DD01C092D901D092DC
S1130A50DA01E092DB01F092DC0182E497E00E948B
S1130A60840E04C084E097E00E94840E1F910F91CD
S1130A70FF90EF90DF90CF90BF90AF909F908F90BA
S1130A8008958A3008F080E090E0FC01EE58FF4FB2
S1130A902491FC01E859FF4F8491E5B1E07CE22BFD
S1130AA0E5B9882311F0439A08954398089588B1CD
S1130AB0887F88B9089585B1807C85B94398089565
S1130AC0CF93CFB7F8941092CA011092CD0110922F
S1130AD0CC010E9457050E945B05CFBFCF910895BA
S1130AE02FB7883E33E0930710F087EE93E0F89435
S1130AF09093CD018093CC0181E08093CA012FBFF4
S1130B0008950E9457058091CA01811105C00E9471
S1130B105B051092CB0108954091CC015091CD0119
S1130B208091CB0181111DC09A01ADECBCEC0E94F7
S1130B305D139695879596958795969587959C01CF
S1130B40220F331F880F991F880F991F880F991F31
S1130B50820F931F242F281B822F0E944105409A45
S1130B603FC08091CB01813051F54A305105C0F12D
S1130B709A01ADECBCEC0E945D13AC01569547950F
S1130B8056954795569547959A010E945D139695FB
S1130B90879596958795969587959C01220F331F87
S1130BA0880F991F880F991F880F991F820F931F11
S1130BB0242F281B822F0E944105419A11C04436DC
S1130BC0510570F09A013695279536952795ABE730
S1130BD0B4E10E945D13969587950E944105429A5F
S1130BE08091CB018F5F8093CB018091CB018330C7
S1130BF010F01092CB010895109280008BE0809346
S1130C00810080E493E0909389008093880082E0DF
S1130C1080936F0008951F920F920FB60F921124C4
S1130C202F933F934F935F936F937F938F939F93F0
S1130C30AF93BF93EF93FF930E9481050E94A60494
S1130C40FF91EF91BF91AF919F918F917F916F91A0
S1130C505F914F913F912F910F900FBE0F901F9076
S1130C6018956623D1F0FC016150262F30E02F5FE8
S1130C703F4FAC01420F531F80E027E09191892739
S1130C8098E088231CF4880F822701C0880F9150B4
S1130C90C1F7E417F50791F7089580E00895CF931D
S1130CA0DF93CDB7DEB767970FB6F894DEBF0FBEFC
S1130CB0CDBF86E493E59A83898381E08B83809119
S1130CC0D2018C83E6E0F1E0808191819E838D8363
S1130CD08281938198878F83848195819A8789877C
S1130CE0868197819C878B8780910401909105016F
S1130CF09E878D878091020190910301988B8F8745
S1130D0080910101898B8091D1018A8B8091D001DE
S1130D108B8B809100018C8B8091CF018D8B809186
S1130D20CE018E8B66E1CE0101960E9431068F8B37
S1130D3047E150E060E070E0CE0101960E947C1330
S1130D4067960FB6F894DEBF0FBECDBFDF91CF918B
S1130D5008954F925F926F927F928F929F92AF927B
S1130D60BF92CF92DF92EF92FF920F931F93CF9394
S1130D70DF93CDB7DEB767970FB6F894DEBF0FBE2B
S1130D80CDBF47E150E060E070E0CE0101960E94E3
S1130D906C1389819A8186349345F1F51B81113056
S1130DA0D9F54C8083E08415B8F1ED80FE80E11420
S1130DB0F10461F48F819885892B41F489859A85A2
S1130DC0892B21F48B859C85892B31F1CD84DE849C
S1130DD0C114D10409F1AF84B888A114B104E1F0BD
S1130DE009890831C8F49A882BE32915A8F08B885F
S1130DF0281590F05C8887E1851570F06D882615BC
S1130E0058F07E88271540F066E1CE0101960E94D5
S1130E1031069F89891771F11092D201E6E0F1E061
S1130E208EE190E09183808385E090E093838283D8
S1130E3024E130E0358324839783868382E090E045
S1130E409093050180930401909303018093020120
S1130E5086E1809301011092D1011092D00186E0C5
S1130E60809300011092CF011092CE010E944F0690
S1130E7010E026C04092D201E6E0F1E0F182E08287
S1130E808F8198859383828389859A8595838483CA
S1130E908B859C8597838683D0920501C09204013B
S1130EA0B0920301A0920201009301019092D1013A
S1130EB08092D001509200016092CF017092CE01D5
S1130EC0812F67960FB6F894DEBF0FBECDBFDF91BA
S1130ED0CF911F910F91FF90EF90DF90CF90BF9033
S1130EE0AF909F908F907F906F905F904F900895F8
S1130EF08AB1886F8AB984B18F6384B987B18F60EE
S1130F0087B90E94180A0E9457050E945B0508953C
S1130F100E9478070E945F0E0E94CC0C0E94FC0580
S1130F200E949A0478940E9458130E94F8070E9421
S1130F30A906882329F08EEA90E00E94840E04C05A
S1130F408CE790E00E94840E0E94F209811110C087
S1130F5081E08093D3010E94180A0E94600583E80F
S1130F6097E00E94840E87E697E00E94840E0EC0EC
S1130F701092D3010E94180A0E9460058DE597E043
S1130F800E94840E8091D2010E943C0AC1E08091AB
S1130F90E50181110E944A0F0E94F209811107C0E4
S1130FA0C093D3010E94180A0E946005F0CF1092EA
S1130FB0D3010E94C6048091D201813059F028F0F7
S1130FC0823059F0833061F00EC00E94180A0E94EA
S1130FD06005DDCF0E943B0BDACF0E94440CD7CFD3
S1130FE00E94A90CD4CF0E94180A0E946005CFCF9A
S1130FF080912D02853A39F48BEB98E00E94840E9F
S113100010922D02089589ED98E00E94840E0895AF
S11310100E94180A0E94600585EA80932D02E0EC84
S1131020F0E0808180648083808186FFFDCFF89426
S11310300C940000FFCF1F93CF93DF93D82F162F6C
S113104080ED0E94D50CC82F811103C00E94270D8A
S113105015C08D2F0E94FF0CC82F811103C00E9460
S1131060270D0CC0812F0E94FF0CC82F811103C0D3
S11310700E94270D03C00E94270DC1E08C2FDF9131
S1131080CF911F910895CF92DF92EF92FF92582F44
S1131090262F30E0ACE3B0E00E945D136B017C01CD
S11310A0C40ED11CE11CF11C252F30E0A0E1BEE0F0
S11310B00E945D136C0D7D1D8E1D9F1DFF90EF9092
S11310C0DF90CF900895CF92DF92EF92FF92FC01D0
S11310D0208130E0A0E1BEE00E945D136B017C0141
S11310E0218130E0ACE3B0E00E945D13DC01CB0170
S11310F08C0D9D1DAE1DBF1D2281BC01CD01620F53
S1131100711D811D911DFF90EF90DF90CF90089588
S1131110621773078407950728F0621B730B840B0F
S1131120950B0895DC01CB01821B930BA40BB50B2B
S1131130BC01CD0160587E4A8E4F9F4F0895CF92D7
S1131140DF92EF92FF920F931F93CF93DF938C0163
S113115080ED0E94D50CC82F811103C00E94270D79
S11311608AC080E00E94FF0CC82F811103C00E9436
S1131170270D81C081ED0E94D50CC82F811103C0B9
S11311800E94270D78C00E94110DC82E0E94110DD7
S1131190E82E0E94110DC82F0E94110D0E94110DFE
S11311A0D82F0E94110DD82E0E941C0DF82E0E94DB
S11311B0270D8C2D8695869586958E70982F990F80
S11311C0990F980F8C2D8F70492F480FF801428387
S11311D03E2D3695369536953E70832F880F880FB1
S11311E0380F9E2D9F70390F31839C2F96959695BD
S11311F096959670892F880F880F980FCF70C90F16
S1131200C0839D2F92959F70990F892F880F880F07
S1131210980FDF70D90FD383D4FA992790F9990FD7
S1131220892F880F880F980F8D2D8F70980F9483B6
S11312302F2D22952F70220F822F880F880F820F57
S11312402F2D2F70F82EF20EF582C83168F43C333E
S113125068F44C3368F4D150DF3160F49150C1E04C
S11312609C3048F0C0E007C0C0E005C0C0E003C047
S1131270C0E001C0C0E08C2FDF91CF911F910F918E
S1131280FF90EF90DF90CF900895CF93DF93D82F06
S1131290C62F8DEC489F812D1124869586958695C1
S11312A090E1899FB0011124880F982F990F990F0D
S11312B0890F481B642B80E00E941B08982F882309
S11312C089F18DECC89F812D11248695869586958C
S11312D090E1899FB0011124880F982F990F990FDD
S11312E0890FC81B6C2B81E00E941B08982F882350
S11312F0C9F08DECD89F812D11248695869586950D
S113130090E1899FB0011124880F982F990F990FAC
S1131310890FD81B6D2B82E00E941B0891E081117C
S113132001C090E0892FDF91CF9108951F93CF934F
S1131330DF93C82FD62F142F61E083E00E941B088F
S1131340982F882309F449C08DECC89F812D11245E
S113135086958695869590E1899FB0011124880F22
S1131360982F990F990F890FC81B6C2B84E00E944A
S11313701B08982F882389F18DECD89F812D112487
S113138086958695869590E1899FB0011124880FF2
S1131390982F990F990F890FD81B6D2B85E00E9408
S11313A01B08982F8823C9F08DEC189F812D1124D8
S11313B086958695869590E1899FB0011124880FC2
S11313C0982F990F990F890F181B612B86E00E94A3
S11313D01B0891E0811101C090E0892FDF91CF912A
S11313E01F910895CF93DF9300D000D000D0CDB7E4
S11313F0DEB7CE0101960E949F08811104C091E0DE
S11314009093D3010CC086E0FE013196A7EEB1E0C3
S113141001900D928A95E1F71092D30181E026960E
S11314200FB6F894DEBF0FBECDBFDF91CF91089504
S11314308BB187708BB908950E94180A8BB18066AE
S11314408BB908950E94180A8BB180658BB90895F1
S11314500E94180A8BB188688BB908950E94180AF3
S11314608BB180658BB90895CF93C82F0E94180A59
S1131470C1115C9ACF9108951092DD011092D901A7
S11314801092DA011092DB011092DC011092D40167
S11314901092DF011092E4011092D5011092D6014E
S11314A01092D7011092D8011092E0011092E1013C
S11314B01092E2011092E3018093D2011092DE01B6
S11314C0813059F028F0823089F08330A1F018C0BF
S11314D00E94180A0E94600508950E941C0A8091C7
S11314E00601909107010E94700508950E94180A50
S11314F00E94600508950E94180A0E9460050895DC
S11315000E94180A0E9460050895282F30E0F9010E
S1131510EE0FFF1FEA5FFE4F0190F081E02DEF2BED
S113152009F460C027C0282F30E0F901EE0FFF1F37
S1131530EA5FFE4F0190F081E02DEF2BD9F4C90151
S1131540019683709078992324F401978C6F9F6F90
S11315500196A15041F7FC01FF27EE0FFF1FEA5F40
S1131560FE4F20813181232B29F40E94180A0E9406
S1131570600508958093DE014093D5015093D60110
S11315806093D7017093D8011092DD01813079F016
S113159028F08230A9F08330E1F008950E941C0AFB
S11315A080910601909107010E94700508950E94A0
S11315B0220A80910801909109010E947005089502
S11315C00E94280A80910A0190910B010E947005E3
S11315D008950E942E0A80910C0190910D010E94A1
S11315E070050895C901019683709078992324F4B5
S11315F001978C6F9F6F0196A3E095CFAB01BC015F
S11316008091060190910701892BC1F48091080112
S113161090910901892B71F480910A0190910B0139
S1131620892B51F480910C0190910D01892B41F08B
S113163083E007C081E005C082E003C080E001C010
S113164080E08093DE014093D5015093D6016093EE
S1131650D7017093D8011092DD011092D901109234
S1131660DA011092DB011092DC0191E09093D40135
S11316700E94850A08958F929F92AF92BF92CF9253
S1131680DF92EF92FF9287EE91E00E9463086B0174
S11316907C018091D401811105C0C701B6010E946B
S11316A0FE0A93C02091D5013091D6014091D70113
S11316B05091D801C701B6010E9488084091DE010B
S11316C0242F30E0F901EE0FFF1FEA5FFE4F019077
S11316D0F081E02D411167C05091DD01552309F4DB
S11316E062C02091D9013091DA014091DB0150911F
S11316F0DC01C701B6010E948808653071058105C7
S1131700910540F01092DD01B701A60181E00E942D
S1131710850A5BC025E030E0C901861B970B0E9457
S1131720700553C09D0123703078332334F4215065
S113173031092C6F3F6F2F5F3F4F822FF901FF2735
S1131740EE0FFF1FEA5FFE4F40815181452BA1F54B
S113175011966A177B0731F734C0A5019401261B43
S1131760370B480B590BDA01C9010E9470052DC0D3
S1131770C901019683709078992324F401978C6FA2
S11317809F6F0196FC01FF27EE0FFF1FEA5FFE4FDC
S113179060817181672B81F4D9011296642F70E006
S11317A06B5F7F4FBFCF4F01A12CB12C681579051A
S11317B08A059B0590F2DCCFB701A6010E94850A39
S11317C004C00E94180A0E946005FF90EF90DF9009
S11317D0CF90BF90AF909F908F9008958F929F92DB
S11317E0AF92BF92CF92DF92EF92FF92FC014281BF
S11317F0618180810E9443084B015C014091D001CA
S11318006091D101809101010E9443086B017C0128
S11318104091CE016091CF01809100010E94430864
S1131820C616D706E806F90629F1C616D706E8064D
S1131830F90680F48C149D04AE04BF0448F021E042
S113184086169706A806B90608F020E0822F13C072
S113185080E011C08C149D04AE04BF0448F421E060
S113186086169706A806B90608F020E0822F03C062
S113187081E001C081E0FF90EF90DF90CF90BF90B6
S1131880AF909F908F900895CF92DF92EF92FF9246
S11318900F931F93CF93DF9387EE91E00E94630829
S11318A06B017C018091DF01811112C081E0809382
S11318B0DF018093E401C092E001D092E101E09263
S11318C0E201F092E3010E94340A0E94600538C0EC
S11318D08091E401882329F0C0910401D09105018D
S11318E004C0C0910201D0910301209711F4C1E01A
S11318F0D0E02091E0013091E1014091E20150916A
S1131900E301C701B6010E9488088E0120E030E09F
S1131910601771078207930788F081E09091E401D2
S1131920911180E08093E401C092E001D092E10142
S1131930E092E201F092E3010E94340A0E94600501
S1131940DF91CF911F910F91FF90EF90DF90CF9097
S1131950089587EE91E00E94EE0B882349F0809170
S1131960DF01811102C01092D4010E94440C089539
S11319708091DF01882369F01092DF011092D40175
S11319801092DD0187EE91E00E9463080E94FE0A36
S113199008950E943B0B08951092B90088E4809347
S11319A0B80084E08093BC00089594EA9093BC004E
S11319B0ECEBF0E090819923ECF79091B900987FDB
S11319C0983011F09031C9F48093BB0094E890935F
S11319D0BC00ECEBF0E090819923ECF79091B90016
S11319E0987F80FF05C081E0903441F080E0089545
S11319F081E0983119F080E0089580E008958093A3
S1131A00BB0084E88093BC00ECEBF0E08081882389
S1131A10ECF79091B900987F81E0983209F080E06A
S1131A20089584EC8093BC00ECEBF0E08081882383
S1131A30ECF78091BB00089584E88093BC00ECEB44
S1131A40F0E080818823ECF78091BB00089584E95D
S1131A508093BC000895FC0120812223D9F0FB016E
S1131A603081332389F0231311C0DC0111963196A0
S1131A7002C092130DC0BF019D91992359F0219189
S1131A802111F7CF80E0089580E0089580E0089563
S1131A9080E0089581E0FB019081911180E0089538
S1131AA0FB01DC0103C08D91981305C09191911144
S1131AB0FACF81E0089580E00895CF93DF93DC01AD
S1131AC0E901FC0131968C91882309F45FC090E010
S1131AD09F5F31913111FCCF983009F059C01296B3
S1131AE09C9112979A3309F055C015969C911597BD
S1131AF09A3309F051C021E090E002C09F5F2F5F4C
S1131B009230E1F39530D1F3FD01E90FF11D3081FD
S1131B1030533A3008F042C0283080F3880F8056A2
S1131B20982F990F990F890F11969C9111979053A3
S1131B30890FFB01808313968C911397880F80562D
S1131B40982F990F990F890F14969C91149790537D
S1131B50890FFA01808316968C911697880F805608
S1131B60982F990F990F890F17969C919053980F5E
S1131B709883FB018081883198F4FA0180818C3349
S1131B8088F481E09C3378F080E00DC080E00BC0E5
S1131B9080E009C080E007C080E005C080E003C0A9
S1131BA080E001C080E0DF91CF910895CF93DF936F
S1131BB09C01FC01A081B1819C91903231F4FD0122
S1131BC03196DF0191919032E1F3992339F08C91B0
S1131BD08823D9F0803241F4ED0115C0F901B183B5
S1131BE0A08380E090E013C0FD013196EF01919154
S1131BF0992319F09032D1F706C0F901D183C0833B
S1131C008A2F9B2F04C01992F8CFED01F6CFDF91F4
S1131C10CF910895DC01FC0131968C91882379F1F0
S1131C2090E09F5F21912111FCCF45C011962C912A
S1131C30119730E020533109A901440F551F220F99
S1131C40331F220F331F220F331F240F351F90E041
S1131C50C097E4E6E89FA001E99F500D1124240FEA
S1131C60351F12968C9190E0C097280F391FFB0105
S1131C703183208381E0232B09F580E0089580E0FF
S1131C80089580E0089580E0089580E0089580E05C
S1131C90089590ED980F9A30A0F711969C911197A2
S1131CA090539A3080F712969C91129790539A30E1
S1131CB008F4BCCFEACF933051F7EBCF08951092DC
S1131CC0C50087E68093C4001092C00088E9809321
S1131CD0C10086E08093C2000895E0ECF0E09081BA
S1131CE095FFFDCF8093C6000895CF93DF93EC0159
S1131CF08881882331F021960E946D0E899181118B
S1131D00FBCFDF91CF910895CF93DF93EC01219620
S1131D10FC018491882339F00E946D0EFE018491A8
S1131D2021968111F9CFDF91CF9108951F93CF931D
S1131D30DF9300D000D000D0CDB7DEB7AC01892B43
S1131D4021F480E30E946D0E41C080E011E0180F81
S1131D50E1E0F0E0EC0FFD1FE80FF11D9A01ADEC9E
S1131D60BCEC0E945D1396958795969587959695FC
S1131D7087959C01220F331F880F991F880F991F85
S1131D80880F991F820F931F9A01281B390BC901D1
S1131D90805D80839A010E945D13AC01569547953E
S1131DA05695479556954795812F4115510571F6DE
S1131DB0112361F01150E1E0F0E0EC0FFD1FE10FA1
S1131DC0F11D80810E946D0E1111F4CF26960FB67D
S1131DD0F894DEBF0FBECDBFDF91CF911F91089560
S1131DE0CF93DF93D82FCDEC8C9FC12D1124C695B2
S1131DF0C695C69580E38C0F0E946D0ECC0F8C2F78
S1131E00880F880FC80F8D2F8C1B805D0E946D0E6C
S1131E10DF91CF9108951F920F920FB60F92112464
S1131E208F939F93EF93FF938091C6008D3011F0B1
S1131E308A3071F48091E601882319F1E091E6017A
S1131E40F0E0E351FE4F108281E08093E50119C078
S1131E509091E501911115C09091E6019F3358F4DA
S1131E60E091E60191E09E0F9093E601F0E0E351EA
S1131E70FE4F808306C01092E6011092ED0110928D
S1131E80E501FF91EF919F918F910F900FBE0F90FD
S1131E901F901895EF92FF920F931F93CF93DF93A8
S1131EA0CDB7DEB760970FB6F894DEBF0FBECDBFD7
S1131EB08FB7F8941092E5018FBF6EE071E08DEE5C
S1131EC091E00E942B0D882331F083E294E00E947C
S1131ED0840E0E94080864E171E08DEE91E00E9496
S1131EE02B0D882339F081E992E00E94840E109230
S1131EF0E601D1C369E171E08DEE91E00E942B0D02
S1131F00882309F4E5C0CE0101960E949F0881113F
S1131F100CC081E08093D3010E94180A0E946005DE
S1131F2083E897E00E94840ED0C086E0FE013196DB
S1131F30A7EEB1E001900D928A95E1F71092D301DA
S1131F408AE292E00E94840E85E291E00E94750E7E
S1131F508C810E94F00E8EE20E946D0E8D810E9493
S1131F60F00E8CE291E00E94750E8E810E94F00EBC
S1131F7080E391E00E94750E89810E94F00E8AE34D
S1131F800E946D0E8A810E94F00E8AE30E946D0EFB
S1131F908B810E94F00E89E391E00E94750E80917E
S1131FA0D201813059F028F0823069F0833081F019
S1131FB014C082E491E00E94750E13C08BE491E09A
S1131FC00E94750E0EC085E591E00E94750E09C051
S1131FD080E691E00E94750E04C080E791E00E94C3
S1131FE0750E8AEF91E00E94840E06E011E0F8017C
S1131FF0808191810E94960E85ED91E00E94840E6D
S1132000F801828193810E94960E81EB91E00E94F7
S1132010840EF801848195810E94960E8CE891E0EB
S11320200E94840EF801868197810E94960E8AE7A9
S113203091E00E94840E8091DE0190E001960E945E
S1132040960E8DE591E00E94840E8091040190919A
S113205005010E94960E8CE491E00E94840E80910A
S11320600201909103010E94960E8BE291E00E947E
S1132070840E809101010E94F00E8AE30E946D0E8D
S11320808091D1010E94F00E8AE30E946D0E80912E
S1132090D0010E94F00E8DE191E00E94840E8091A7
S11320A000010E94F00E8AE30E946D0E8091CF0120
S11320B00E94F00E8AE30E946D0E8091CE010E9470
S11320C0F00E88EC90E00E94840E1092E601E3C2C8
S11320D062E471E08DEE91E00E942B0D882361F0A3
S11320E080E00E943C0A0E944F0684E596E00E942C
S11320F0840E1092E601CFC26BE471E08DEE91E0A4
S11321000E942B0D8823A9F08091D301882329F004
S113211080E694E00E94840E09C081E00E943C0A9B
S11321200E944F068AE396E00E94840E1092E60114
S1132130B2C265E571E08DEE91E00E942B0D88231B
S1132140A9F08091D301882329F080E694E00E94CD
S1132150840E09C082E00E943C0A0E944F068FE16F
S113216096E00E94840E1092E60195C260E671E04A
S11321708DEE91E00E942B0D8823A9F08091D3016C
S1132180882329F080E694E00E94840E09C083E04D
S11321900E943C0A0E944F068FEF95E00E94840E35
S11321A01092E60178C268E771E08DEE91E00E943A
S11321B0500D182F8823E1F18DEE91E09A838983E5
S11321C0CE0101960E94D60DCE0101960E94D60D35
S11321D0009769F09E01275F3F4FAE01455F5F4F57
S11321E0BE01635F7F4F0E945D0D811105C08CECC1
S11321F095E00E94840E19C049856B858D850E94E7
S1132200450981110CC081E08093D3010E94180A12
S11322100E94600583E897E00E94840E06C0109235
S1132220D30183EF96E00E94840E1092E60133C23C
S113223062E871E08DEE91E00E94500D882309F46C
S11322408AC08DEE91E09A838983CE0101960E9423
S1132250D60DCE0101960E94D60DDC01009709F43B
S11322605CC0FC0131968C91882309F456C090E03F
S11322709F5F21912111FCCF983009F04EC0129636
S11322809C9112979A3309F048C015969C91159722
S11322909A3309F042C091E002C01F5F9F5F123081
S11322A0E1F31530D1F3FD01E10FF11D208120533D
S11322B02A3098F5983088F3880F8056982F990F14
S11322C0990F890F11969C911197980F13964C9121
S11322D0139714968C91149716963C91169717960B
S11322E02C915FEC590F5F31C0F4440F4056642FBA
S11322F0660F660F460F8053642F680F71F080EDF0
S1132300890F932F990F9056492F440F440F490F6B
S113231090ED920F490F6D3028F084EB95E00E9408
S1132320840E16C00E94960981110CC081E080932E
S1132330D3010E94180A0E94600583E897E00E9476
S1132340840E06C01092D30182EE96E00E94840EA1
S11323501092E601A0C16CE871E08DEE91E00E945C
S1132360500D882309F48FC08DEE91E09A878987F8
S1132370CE0109960E94D60DCE0101967C0101E39F
S113238010E0CE0109960E94D60DDC01009729F4D5
S113239085E795E00E94840E73C0FC0131968C9110
S11323A0882351F190E09F5F21912111FCCF95305A
S11323B019F590E080179107F9F411968C91119713
S11323C08F35D1F412968C911297803371F4139651
S11323D08C911397803349F414968C91149780331D
S11323E021F4F701118210820CC0B701CD010296CD
S11323F00E940A0E811105C082E995E00E94840EB4
S11324003FC0F2E0EF0EF11C0F5F1F4F05331105C3
S113241009F0B7CFCE0109960E94D60D892B29F079
S113242086E595E00E94840E2BC089819A810097ED
S113243041F42B813C81232B21F42D813E81232BDC
S1132440B9F0E6E0F1E0918380838B819C819383F2
S113245082838D819E81958384838F8198859783E0
S113246086830E944F068DEB96E00E94840E08C07E
S11324702F813885232B29F78CE394E00E94840E66
S11324801092E60108C16BE971E08DEE91E00E94C3
S1132490500D882309F470C08DEE91E09C878B87E2
S11324A0CE010B960E94D60DCE010B960E94D60D3E
S11324B0009751F0FC0120812F3431F421812E3416
S11324C019F422812F3529F08BE395E00E94840EC4
S11324D050C0BE01675F7F4F03960E940A0E8111B0
S11324E005C084E095E00E94840E43C0CE010B96A3
S11324F00E94D60DFC01892B61F080818F3449F450
S11325008181863431F48281863419F483818F3554
S113251029F08FE195E00E94840E2BC0BE016F5F0D
S11325207F4FCF0104960E940A0E811105C088EEE8
S113253094E00E94840E1DC0CE010B960E94D60D1D
S1132540892B29F086E595E00E94840E12C08985C6
S11325509A85909305018093040189819A819093CF
S11325600301809302010E944F0687E996E00E94CE
S1132570840E1092E6018FC06BEA71E08DEE91E05B
S11325800E94500D882309F480C08DEE91E09A8357
S11325908983CE0101960E94D60DCE0101960E9438
S11325A0D60D009731F065EC71E00E942B0D81117E
S11325B005C081ED94E00E94840E64C0CE010196B2
S11325C00E94D60D009769F09E01225F3F4FAE0135
S11325D0415F5F4FBE01605F7F4F0E945D0D8111BF
S11325E005C08AE994E00E94840E4CC0CE01019695
S11325F00E94D60D009731F067E471E00E942B0D24
S1132600811105C089EB94E00E94840E3BC0CE0189
S113261001960E94D60D009769F09E01275F3F4FF7
S1132620AE01455F5F4FBE01635F7F4F0E945D0D4A
S1132630811105C08DE794E00E94840E23C0CE0171
S113264001960E94D60D892B29F086E595E00E941B
S1132650840E18C08889809301018F858093D101ED
S11326608E858093D0018D85809300018B85809326
S1132670CF0189858093CE010E944F068DE696E0B6
S11326800E94840E1092E60106C084EE95E00E943A
S1132690840E1092E60160960FB6F894DEBF0FBE6A
S11326A0CDBFDF91CF911F910F91FF90EF900895CF
S11326B081EA97E00E94840E0895A29FB001B39F1F
S11326C0C001A39F700D811D1124911DB29F700D37
S11326D0811D1124911D0895DC01CB01FC01F999A0
S11326E0FECF06C0F2BDE1BDF89A319600B40D925A
S11326F041505040B8F70895DC01A40FB51F415074
S1132700504048F0CB01840F951F2E910E948D13E9
S113271041505040D0F70895262FF999FECF92BD2D
S113272081BDF89A019700B4021639F01FBA20BD92
S11327300FB6F894FA9AF99A0FBE0895F894FFCF59
S11327400616020002001E00050014000500524592
S11327505345540048454C5000524541445F53543E
S11327604154555300444154453A20002E32300020
S11327700D0A54494D453A20000D0A4D4F44453A3F
S113278020004D4F44455F4F4646004D4F44455F42
S11327904155544F004D4F44455F4E4947485400FE
S11327A04D4F44455F4155544F5F4E49474854008F
S11327B0554E4B4E4F574E005345545F54494D456B
S11327C020005345545F4441544520005345545F11
S11327D04D4F44455F4155544F20005345545F4D80
S11327E04F44455F4E4947485420005345545F4D7C
S11327F04F44455F4155544F5F4E494748545F54D9
S10B2800494D4520004F4E0034
S9030000FC
